:100000000C9458000C9480000C9480000C94800098
:100010000C9480000C9480000C9480000C94800060
:100020000C9480000C9480000C9480000C94800050
:100030000C9480000C9480000C9480000C94800040
:100040000C94A4040C9480000C9414050C94EE04FD
:100050000C9480000C9480000C9480000C94800020
:100060000C9446050C948000000000002500280038
:100070002B00040404040404040402020202020229
:10008000030303030303010204081020408001025C
:1000900004081020010204081020000000080002DB
:1000A00001000003040700000000000000006506D6
:1000B00011241FBECFEFD8E0DEBFCDBF11E0A0E01E
:1000C000B1E0ECEAF5E102C005900D92A439B10768
:1000D000D9F722E0A4E9B1E001C01D92AF3FB20719
:1000E000E1F710E0C8E5D0E004C02197FE010E94CE
:1000F000CE0AC735D107C9F70E949E060C94D40AD0
:100100000C940000982F2091550281E0213208F0D4
:1001100043C0809131028111FCCF8091540232E0C2
:1001200030933102909330029FEF90932F02109200
:100130002E0220932D02A4E3B2E0EDE0F2E090E085
:10014000291331C010920C0290910C02880F892B58
:1001500080930C0280910B02813049F510920B02C2
:1001600080910C028093BB008091BC0083FDF8CF8E
:1001700085EC8093BC00809131028230E1F3809164
:100180002F028F3FB1F080912F028032A1F0809139
:100190002F02803391F084E01092330210925502C6
:1001A0001092320208953D9131939F5FC9CF85EE41
:1001B000E0CF80E0F1CF82E0EFCF83E0EDCF90E0C1
:1001C000FC01E656FF4F2491FC01EA57FF4F3491A2
:1001D000FC01EE58FF4FE491EE23B1F0222339F0F9
:1001E0002330E9F090F4213001F1223011F1F0E0F8
:1001F000EE0FFF1FE859FF4FA591B4918FB7F89408
:10020000EC913E2B3C938FBF08952730A9F0283006
:10021000C9F0243061F7809180008F7D03C0809108
:1002200080008F7780938000E2CF84B58F7784BD84
:10023000DECF84B58F7DFBCF8091B0008F77809328
:10024000B000D5CF8091B0008F7DF9CF089508958B
:10025000AF92BF92CF92DF92EF92FF920F931F93D4
:10026000CF93DF936C017B018B01040F151FEB0112
:100270005E01AE18BF08C017D10759F06991D601C9
:10028000ED91FC910190F081E02DC6010995892B3B
:1002900079F7C501DF91CF911F910F91FF90EF90FA
:1002A000DF90CF90BF90AF900895FC01538D448DA7
:1002B000252F30E0842F90E0821B930B541710F011
:1002C000CF96089501970895FC01918D828D98171E
:1002D00061F0A28DAE0FBF2FB11D5D968C91928DF6
:1002E0009F5F9F73928F90E008958FEF9FEF089527
:1002F000FC01918D828D981731F0828DE80FF11DF0
:10030000858D90E008958FEF9FEF0895FC01918D0A
:10031000228D892F90E0805C9F4F821B91098F7303
:100320009927089586E592E00E94860121E0892BB5
:1003300009F420E0822F089580E090E0892B29F0D5
:100340000E94920181110C9400000895FC01A48D7B
:10035000A80FB92FB11DA35ABF4F2C91848D90E0E7
:1003600001968F739927848FA689B7892C93A089CA
:10037000B1898C91837080648C93938D848D981354
:1003800006C00288F389E02D80818F7D80830895E7
:10039000EF92FF920F931F93CF93DF93EC0181E0D5
:1003A000888F9B8D8C8D98131AC0E889F98980817C
:1003B00085FF15C09FB7F894EE89FF896083E889AF
:1003C000F98980818370806480839FBF81E090E0A1
:1003D000DF91CF911F910F91FF90EF900895F62E2E
:1003E0000B8D10E00F5F1F4F0F731127E02E8C8DC8
:1003F0008E110CC00FB607FCFACFE889F98980810D
:1004000085FFF5CFCE010E94A601F1CFEB8DEC0F59
:10041000FD2FF11DE35AFF4FF0829FB7F8940B8F29
:10042000EA89FB8980818062CFCFCF93DF93EC0193
:10043000888D8823B9F0AA89BB89E889F9898C91CC
:1004400085FD03C0808186FD0DC00FB607FCF7CF88
:100450008C9185FFF2CF808185FFEDCFCE010E9488
:10046000A601E9CFDF91CF91089585ED8093BC007F
:100470008091BC0084FDFCCF109231020895209140
:10048000D401260F3327331F21323105ECF420919C
:100490003102FC0190E080E0243069F082E00895B0
:1004A000A091D4012191AC014C545E4FA40FB52F03
:1004B000B11D2C930196861798F38091D401680F93
:1004C0006093D40180E0089581E008950895E0915B
:1004D000FC018091FB01E81730F4F0E0EC56FE4F90
:1004E000808190E008958FEF9FEF08959091FC0137
:1004F0008091FB012FEF3FEF981748F4E92FF0E0D0
:10050000EC56FE4F208130E09F5F9093FC01C901C3
:1005100008958091FB019091FC01891B990B08952E
:10052000CF92DF92EF92FF920F931F93CF93DF93BF
:100530007C01CB018A0120913202222389F0EB0158
:100540006B01C40ED51ECC15DD0569F06991D7018C
:10055000ED91FC910190F081E02DC7010995F3CF59
:10056000642F0E943F02C801DF91CF911F910F912C
:10057000FF90EF90DF90CF900895CF93DF931F927D
:10058000CDB7DEB76983209132022223F9F02091A2
:100590005502203258F021E030E0FC013383228301
:1005A00090E080E00F90DF91CF9108958091330229
:1005B000E82FF0E0EC5CFD4F998190838F5F809392
:1005C00033028093550281E090E0ECCF61E0CE01F0
:1005D00001960E943F02F7CF682F83EF92E00C94C0
:1005E000BD0290E080E00895FC0101900020E9F751
:1005F0003197AF01481B590BBC0186E592E00C9482
:1006000028018F929F92AF92BF920F931F93CF9327
:10061000DF93CDB7DEB7A1970FB6F894DEBF0FBE5C
:10062000CDBF19A2423008F44AE08E010F5D1F4F82
:10063000842E912CB12CA12CA50194010E94AC0A0E
:10064000E62FB901CA01EA30F4F4E05DD801EE9377
:100650008D01232B242B252B79F790E080E0109738
:1006600019F0CD010E94F402A1960FB6F894DEBFF6
:100670000FBECDBFDF91CF911F910F91BF90AF9073
:100680009F908F900895E95CE1CFCF93DF9384E250
:1006900091E00E94F402EC0188E291E00E94F402F1
:1006A0008C0F9D1FDF91CF9108954F925F926F92B3
:1006B0007F928F929F92AF92BF92CF92DF92EF92F2
:1006C000FF920F931F93CF936B017C01742EAC01AB
:1006D0009B010E94A70A882399F08BE291E0CF91B9
:1006E0001F910F91FF90EF90DF90CF90BF90AF9050
:1006F0009F908F907F906F905F904F900C94F4023A
:1007000046015701E894B7F82FEF3FEF4FE75FE757
:10071000C501B4010E94A70A81110DC02FEF3FEF60
:100720004FE75FE7C501B4010E94DD0818161CF40D
:100730008FE291E0D4CF2FEF3FEF4FE75FE4C701A7
:10074000B6010E94350A18161CF483E391E0C7CF66
:100750002FEF3FEF4FE75FECC701B6010E94DD08C6
:1007600087FDF3CF20E030E0A901C701B6010E9468
:10077000DD0810E000E087FF0AC06DE286E592E048
:100780000E94C8018C01F7FAF094F7F8F094C0E0E9
:1007900060E070E080E09FE37C1641F020E030E014
:1007A00040E251E40E94E208CF5FF6CFA701960134
:1007B0000E9471082B013C010E9454094B015C010D
:1007C0004AE00E9401037C01E00EF11ECC23C1F13E
:1007D000C501B4010E9483099B01AC01C301B201B0
:1007E0000E9470084B015C016EE286E592E00E9477
:1007F000C801E80EF91EC15018F120E030E040E2D7
:1008000051E4C501B4010E943A0A2B013C010E9447
:1008100054094B01B12CA12C4AE0C501B4010E943E
:100820000103E80EF91EC501B4010E9483099B0172
:10083000AC01C301B2010E9470084B015C01DBCF27
:10084000C701CF911F910F91FF90EF90DF90CF9054
:10085000BF90AF909F908F907F906F905F904F90E0
:100860000895CF93DF93C82F81E080933202C09325
:10087000540210923302109255028AEA90E00E94CC
:10088000EC0280E00E948200809131028111FCCF55
:1008900081E080933102809330029FEF90932F028A
:1008A00010922E0280932D0280930C0280910C02F4
:1008B000CC0FC82BC0930C0280910B028130F1F554
:1008C00010920B0280910C028093BB008091BC00BF
:1008D00083FDF8CF85EC8093BC008091310281309C
:1008E000E1F380912E0292E0823010F490912E027A
:1008F000ADE0B2E0E4E9F1E080E0891321C01092BC
:10090000FC018093FB0183EF92E00E947602C82FE6
:1009100083EF92E00E947602D82F6C2F70E090E077
:1009200080E00E948309DD2331F020E030E040E0E8
:100930005FE30E947108DF91CF91089585EECBCFE0
:100940002D9121938F5FD9CF1F920F920FB60F92E7
:1009500011242F933F938F939F93AF93BF938091D5
:10096000070290910802A0910902B0910A02309109
:10097000060223E0230F2D3758F50196A11DB11D66
:10098000209306028093070290930802A093090225
:10099000B0930A028091020290910302A091040296
:1009A000B09105020196A11DB11D809302029093A2
:1009B0000302A0930402B0930502BF91AF919F91EF
:1009C0008F913F912F910F900FBE0F901F90189510
:1009D00026E8230F0296A11DB11DD2CF1F920F92C0
:1009E0000FB60F9211242F933F934F935F936F9302
:1009F0007F938F939F93AF93BF93EF93FF9386E57E
:100A000092E00E94A601FF91EF91BF91AF919F915B
:100A10008F917F916F915F914F913F912F910F90A7
:100A20000FBE0F901F9018951F920F920FB60F9246
:100A300011242F938F939F93EF93FF93E09166027E
:100A4000F09167028081E0916C02F0916D0282FD6D
:100A50001BC0908180916F028F5F8F732091700215
:100A6000821741F0E0916F02F0E0EA5AFD4F958F56
:100A700080936F02FF91EF919F918F912F910F9033
:100A80000FBE0F901F9018958081F4CF1F920F9288
:100A90000FB60F9211242F933F934F935F936F9351
:100AA0007F938F939F93AF93BF93EF93FF93809127
:100AB000B900887F803609F44AC0F0F5883209F41D
:100AC000A7C018F5803109F49BC0B8F4882309F455
:100AD000F9C0883009F494C0FF91EF91BF91AF91B4
:100AE0009F918F917F916F915F914F913F912F9146
:100AF0000F900FBE0F901F901895883109F488C091
:100B0000803251F780932F0214C0803409F49DC0C5
:100B100040F48033B9F38833F9F680932F0285ECE3
:100B2000B0C0803509F485C0883509F496C0883492
:100B300099F60E943502D0CF883909F48CC038F577
:100B4000883729F050F4883611F0803729F683E091
:100B5000809331021092F60157C0883809F47BC0A7
:100B6000803919F0803809F0B7CF8091F6018032D2
:100B700008F071C0E091F60181E08E0F8093F601DC
:100B80008091BB00F0E0EA52FE4F80833DC0803B85
:100B900039F0E0F4803A09F479C0883A09F09CCF42
:100BA00084E0809331021092D5011092D401E0913B
:100BB000F901F091FA0109958091D40181110FC0DA
:100BC00081E08093D4011092B40109C0803C09F403
:100BD000A6CF883C09F4A3CF883B09F07DCFE091F4
:100BE000D50181E08E0F8093D501F0E0EC54FE4FEB
:100BF00080818093BB009091D5018091D40129C060
:100C000080910C028093BB0085EC8093BC0064CF84
:100C100090912E0280912D02981758F5E0912E02A6
:100C200081E08E0F80932E02F0E0E35FFD4F808124
:100C3000E9CFE0912E0281E08E0F80932E02809109
:100C4000BB00F0E0E35FFD4F808390912E02809126
:100C50002D029817C8F285E8D8CFE0912E0281E0E6
:100C60008E0F80932E028091BB00F0E0E35FFD4F7A
:100C700080838091300281115CCF81E080930B02F0
:100C800084EA8093BC001092310226CF85EC8093D9
:100C9000BC00109231028091F601803230F4E09174
:100CA000F601F0E0EA52FE4F10826091F60170E02A
:100CB000E091F701F091F80186ED91E0099510922D
:100CC000F6010ACF10922F0234CFE6E5F2E013824C
:100CD000128288EE93E0A0E0B0E084839583A6833F
:100CE000B78324E031E03183208325EC30E0358781
:100CF000248724EC30E03787268720EC30E0318BE6
:100D0000208B21EC30E0338B228B22EC30E0358BD2
:100D1000248B26EC30E0378B268B118E128E138EAF
:100D2000148EE3EFF2E01382128284839583A6830C
:100D3000B78386E191E0918380830895789484B5A8
:100D4000826084BD84B5816084BD85B5826085BDC7
:100D500085B5816085BD80916E00816080936E0055
:100D60001092810080918100826080938100809147
:100D700081008160809381008091800081608093F8
:100D800080008091B10084608093B1008091B000B8
:100D900081608093B00080917A00846080937A00B3
:100DA00080917A00826080937A0080917A008160DD
:100DB00080937A0080917A00806880937A00109204
:100DC000C100E0916602F091670282E08083E091C9
:100DD0006202F09163021082E0916402F091650278
:100DE0008FEC808310926E02E0916A02F0916B02A8
:100DF00086E08083E0916802F091690280818061E1
:100E00008083E0916802F09169028081886080832C
:100E1000E0916802F0916902808180688083E091AE
:100E20006802F091690280818F7D80831092FC01BD
:100E30001092FB011092330210925502109231026F
:100E4000C1E0C093300210920B0282E10E94DF00E9
:100E500083E10E94DF008091B9008E7F8093B9000A
:100E60008091B9008D7F8093B90088E48093B800A9
:100E700095E49093BC0026E231E03093FA01209390
:100E8000F90127E231E03093F8012093F701C09394
:100E900032028093540210923302109255028CEA6F
:100EA00090E00E94EC0290E080E00E94EC02109240
:100EB0003302109255028EEE90E00E94EC0281E027
:100EC0000E948200C093320289E4809354021092FF
:100ED0003302109255028CEA90E00E94EC0290E0FE
:100EE00080E00E94EC0210923302109255028EEEC6
:100EF00090E00E94EC0281E00E948200C0933202E6
:100F00008AE48093540210923302109255028CEAC4
:100F100090E00E94EC0290E080E00E94EC021092CF
:100F20003302109255028EEE90E00E94EC0281E0B6
:100F30000E94820000E010E0C0E386E592E00E949B
:100F400086011816190634F486E592E00E946401C1
:100F50008093010280910102813349F588E40E9467
:100F600031046B017C0120E030E04AEF52E40E9442
:100F7000350A18160CF481C0C092FD01D092FE0112
:100F8000E092FF01F092000287E391E00E94F402F8
:100F90006091FD017091FE018091FF01909100022E
:100FA00042E00E9455030E944503C09301028091D4
:100FB0000102823349F589E40E9431046B017C010E
:100FC00020E030E04AEF52E40E94350A18160CF493
:100FD00065C0C092FD01D092FE01E092FF01F09247
:100FE000000286E591E00E94F4026091FD0170919B
:100FF000FE018091FF019091000242E00E945503A2
:101000000E944503C093010280910102833349F598
:101010008AE40E9431046B017C0120E030E04AEF59
:1010200052E40E94350A18160CF449C0C092FD0122
:10103000D092FE01E092FF01F092000285E791E07C
:101040000E94F4026091FD017091FE018091FF0108
:101050009091000242E00E9455030E944503C09314
:1010600001020115110509F468CF0E94920188233D
:1010700009F463CF0E94000060CF20E030E040E838
:1010800053E4C701B6010E9470086093FD0170939C
:10109000FE018093FF019093000276CF20E030E0C4
:1010A00040E853E4C701B6010E9470086093FD0157
:1010B0007093FE018093FF019093000292CF20E095
:1010C00030E040E853E4C701B6010E947008609325
:1010D000FD017093FE018093FF0190930002AECF5B
:1010E0005058BB27AA270E9488080C94FB090E942D
:1010F000ED0938F00E94F40920F039F49F3F19F40B
:1011000026F40C94EA090EF4E095E7FB0C94E4094C
:10111000E92F0E940C0A58F3BA1762077307840775
:10112000950720F079F4A6F50C942E0A0EF4E095BC
:101130000B2EBA2FA02D0B01B90190010C01CA0191
:10114000A0011124FF27591B99F0593F50F4503E3C
:1011500068F11A16F040A22F232F342F4427585F2E
:10116000F3CF469537952795A795F0405395C9F746
:101170007EF41F16BA0B620B730B840BBAF09150FE
:10118000A1F0FF0FBB1F661F771F881FC2F70EC09D
:10119000BA0F621F731F841F48F487957795679570
:1011A000B795F7959E3F08F0B0CF9395880F08F05C
:1011B0009927EE0F9795879508950E94C00908F426
:1011C00081E008950E94F6080C94FB090E94F4093E
:1011D00058F00E94ED0940F029F45F3F29F00C948B
:1011E000E40951110C942F0A0C94EA090E940C0A8C
:1011F00068F39923B1F3552391F3951B550BBB2746
:10120000AA2762177307840738F09F5F5F4F220F8A
:10121000331F441FAA1FA9F335D00E2E3AF0E0E881
:1012200032D091505040E695001CCAF72BD0FE2FCB
:1012300029D0660F771F881FBB1F2617370748075F
:10124000AB07B0E809F0BB0B802DBF01FF27935817
:101250005F4F3AF09E3F510578F00C94E4090C94EE
:101260002F0A5F3FE4F3983ED4F386957795679510
:10127000B795F7959F5FC9F7880F911D969587954C
:1012800097F90895E1E0660F771F881FBB1F62176B
:1012900073078407BA0720F0621B730B840BBA0B29
:1012A000EE1F88F7E09508950E94140A88F09F5772
:1012B00098F0B92F9927B751B0F0E1F0660F771F7A
:1012C000881F991F1AF0BA95C9F714C0B13091F070
:1012D0000E942E0AB1E008950C942E0A672F782FF1
:1012E0008827B85F39F0B93FCCF386957795679535
:1012F000B395D9F73EF490958095709561957F4FA1
:101300008F4F9F4F0895E89409C097FB3EF4909546
:101310008095709561957F4F8F4F9F4F9923A9F0CE
:10132000F92F96E9BB279395F6958795779567955D
:10133000B795F111F8CFFAF4BB0F11F460FF1BC0A1
:101340006F5F7F4F8F4F9F4F16C0882311F096E934
:1013500011C0772321F09EE8872F762F05C06623E2
:1013600071F096E8862F70E060E02AF09A95660F9B
:10137000771F881FDAF7880F9695879597F9089554
:10138000990F0008550FAA0BE0E8FEEF1616170696
:10139000E807F907C0F012161306E407F50798F0FE
:1013A000621B730B840B950B39F40A2661F0232B17
:1013B000242B252B21F408950A2609F4A140A69593
:1013C0008FEF811D811D089597F99F6780E870E078
:1013D00060E008959FEF80EC089500240A941616AB
:1013E000170618060906089500240A941216130613
:1013F000140605060895092E0394000C11F48823A1
:1014000052F0BB0F40F4BF2B11F460FF04C06F5FBC
:101410007F4F8F4F9F4F089557FD9058440F551F92
:1014200059F05F3F71F04795880F97FB991F61F066
:101430009F3F79F087950895121613061406551FDD
:10144000F2CF4695F1DF08C0161617061806991F49
:10145000F1CF86957105610508940895E894BB273E
:1014600066277727CB0197F908950E94C00908F4F1
:101470008FEF08950E944D0A0C94FB090E94ED091C
:1014800038F00E94F40920F0952311F00C94E4093F
:101490000C94EA0911240C942F0A0E940C0A70F390
:1014A000959FC1F3950F50E0551F629FF001729F09
:1014B000BB27F00DB11D639FAA27F00DB11DAA1F18
:1014C000649F6627B00DA11D661F829F2227B00D65
:1014D000A11D621F739FB00DA11D621F839FA00DF0
:1014E000611D221F749F3327A00D611D231F849F40
:1014F000600D211D822F762F6A2F11249F57504097
:101500009AF0F1F088234AF0EE0FFF1FBB1F661F11
:10151000771F881F91505040A9F79E3F510580F0DA
:101520000C94E4090C942F0A5F3FE4F3983ED4F343
:10153000869577956795B795F795E7959F5FC1F77E
:10154000FE2B880F911D9695879597F908950E9417
:10155000C009880B990B0895A1E21A2EAA1BBB1B88
:10156000FD010DC0AA1FBB1FEE1FFF1FA217B3076F
:10157000E407F50720F0A21BB30BE40BF50B661F85
:10158000771F881F991F1A9469F760957095809549
:1015900090959B01AC01BD01CF010895EE0FFF1F97
:0C15A0000590F491E02D0994F894FFCF21
:1015AC0000000000C80128015501150286016401E4
:1015BC00780100000000BD029002F102660289026F
:1015CC007602670220432E000D0A006E616E0069E0
:1015DC006E66006F76660053656E7A6F7220312CE2
:1015EC002054656D706572617475726120636974E5
:1015FC006974613A200053656E7A6F7220322C2028
:10160C0054656D706572617475726120636974697B
:10161C0074613A200053656E7A6F7220332C20541B
:10162C00656D70657261747572612063697469743B
:04163C00613A2000EF
:00000001FF
