:100000000C945E000C9486000C9486000C94860080
:100010000C9486000C9486000C9486000C94860048
:100020000C9486000C9486000C9486000C94860038
:100030000C9486000C9486000C9486000C94860028
:100040000C941F040C9486000C94ED030C94C703CD
:100050000C9486000C9486000C9486000C94860008
:100060000C9486000C9486000000000024002700F9
:100070002A0000000000250028002B0004040404CE
:100080000404040402020202020203030303030342
:10009000010204081020408001020408102001021F
:1000A00004081020000000080002010000030407FB
:1000B000000000000000000069048E0611241FBE2D
:1000C000CFEFD8E0DEBFCDBF22E0A0E1B2E001C0BB
:1000D0001D92AA3CB207E1F712E0A0E0B1E0EEE821
:1000E000F2E102C005900D92A031B107D9F710E0FE
:1000F000CDE5D0E004C02197FE010E944207CC3537
:10010000D107C9F70E94DD040C943A090C94000051
:10011000AF92BF92CF92DF92EF92FF920F931F9315
:10012000CF93DF936C017B018B01040F151FEB0153
:100130005E01AE18BF08C017D10759F06991D6010A
:10014000ED91FC910190F081E02DC6010995892B7C
:1001500079F7C501DF91CF911F910F91FF90EF903B
:10016000DF90CF90BF90AF900895FC01538D448DE8
:10017000252F30E0842F90E0821B930B541710F052
:10018000CF96089501970895FC01918D828D98175F
:1001900061F0A28DAE0FBF2FB11D5D968C91928D37
:1001A0009F5F9F73928F90E008958FEF9FEF089568
:1001B000FC01918D828D981731F0828DE80FF11D31
:1001C000858D90E008958FEF9FEF0895FC01918D4C
:1001D000228D892F90E0805C9F4F821B91098F7345
:1001E0009927089581E292E00E94E60021E0892BA0
:1001F00009F420E0822F0895FC01A48DA80FB92FE7
:10020000B11DA35ABF4F2C91848D90E001968F733E
:100210009927848FA689B7892C93A089B1898C915D
:10022000837080648C93938D848D981306C00288AC
:10023000F389E02D80818F7D80830895EF92FF9276
:100240000F931F93CF93DF93EC0181E0888F9B8DF9
:100250008C8D98131AC0E889F989808185FF15C0B3
:100260009FB7F894EE89FF896083E889F9898081D6
:100270008370806480839FBF81E090E0DF91CF91A5
:100280001F910F91FF90EF900895F62E0B8D10E0C7
:100290000F5F1F4F0F731127E02E8C8D8E110CC036
:1002A0000FB607FCFACFE889F989808185FFF5CF81
:1002B000CE010E94FC00F1CFEB8DEC0FFD2FF11D64
:1002C000E35AFF4FF0829FB7F8940B8FEA89FB89BE
:1002D00080818062CFCFCF93DF93EC01888D88231C
:1002E000B9F0AA89BB89E889F9898C9185FD03C099
:1002F000808186FD0DC00FB607FCF7CF8C9185FF7E
:10030000F2CF808185FFEDCFCE010E94FC00E9CFC6
:10031000DF91CF91089590E0FC01EC55FF4F2491BF
:10032000FC01E057FF4F3491FC01E458FF4FE4918A
:10033000EE23C9F0222339F0233001F1A8F4213053
:1003400019F1223029F1F0E0EE0FFF1FEE58FF4FB8
:10035000A591B4918FB7F894EC91611126C03095B6
:100360003E233C938FBF08952730A9F02830C9F071
:10037000243049F7809180008F7D03C080918000F8
:100380008F7780938000DFCF84B58F7784BDDBCFFC
:1003900084B58F7DFBCF8091B0008F778093B000C4
:1003A000D2CF8091B0008F7DF9CF3E2BDACFCF93A3
:1003B000DF9390E0FC01E057FF4F249184589F4F5A
:1003C000FC0184918823D1F090E0880F991FFC01F3
:1003D000E859FF4FA591B491FC01EE58FF4FC5912C
:1003E000D49161110EC09FB7F8948C91E22FE095E3
:1003F0008E238C932881E223E8839FBFDF91CF91E6
:1004000008958FB7F894EC91E22BEC938FBFF6CF61
:100410003FB7F8948091150290911602A0911702AF
:10042000B091180226B5A89B05C02F3F19F0019680
:10043000A11DB11D3FBFBA2FA92F982F8827BC013E
:10044000CD01620F711D811D911D42E0660F771F66
:10045000881F991F4A95D1F708958F929F92AF9266
:10046000BF92CF92DF92EF92FF924B015C010E940C
:1004700008026B017C010E9408026C197D098E093B
:100480009F09683E734081059105A8F321E0821A17
:100490009108A108B10888EEC80E83E0D81EE11CBF
:1004A000F11C81149104A104B10429F7FF90EF908D
:1004B000DF90CF90BF90AF909F908F900895CF9393
:1004C000DF931F92CDB7DEB7898389818EBD0DB4CE
:1004D00007FEFDCF8EB50F90DF91CF9108950F935A
:1004E0001F93CF93DF93C82F162F072FD42F60E0D1
:1004F0000E948B016AE070E080E090E00E942D0293
:1005000086E00E945F0261E08C2F0E948B016AE00E
:1005100070E080E090E00E942D0260E08C2F0E944D
:100520008B0182E00E945F02802F0E945F02812F78
:100530000E945F028D2F0E945F0261E08C2F0E945B
:100540008B0168EE73E080E090E00E942D0260E095
:100550008C2F0E948B016AE070E080E090E00E94A6
:100560002D0284E00E945F0261E08C2FDF91CF9129
:100570001F910F910C948B011F93CF93DF93D82F72
:10058000192FC62F60E08C2F0E948B016AE070E06B
:1005900080E090E00E942D0283E00E945F02812FA4
:1005A0000E945F028D2F0E945F028FEF0E945F0208
:1005B000D82F6AE070E080E090E00E942D0261E0B8
:1005C0008C2F0E948B018D2FDF91CF911F91089569
:1005D000FC0101900020E9F73197AF01481B590B4E
:1005E000BC0181E292E00C9488008F929F92AF92BE
:1005F000BF920F931F93CF93DF93CDB7DEB7A19731
:100600000FB6F894DEBF0FBECDBF19A2423008F47A
:100610004AE08E010F5D1F4F842E912CB12CA12C2E
:10062000A50194010E942007E62FB901CA01EA3012
:10063000F4F4E05DD801EE938D01232B242B252BC0
:1006400079F790E080E0109719F0CD010E94E80260
:10065000A1960FB6F894DEBF0FBECDBFDF91CF914C
:100660001F910F91BF90AF909F908F900895E95C7C
:10067000E1CFCF93DF930E94E802EC0188E191E0A3
:100680000E94E8028C0F9D1FDF91CF910895BC015D
:1006900090E080E04AE00C94F502CF93DF93EC0108
:1006A0008091BE029091BF02009759F02091C00244
:1006B0003091C1022C173D0720F081E0DF91CF91EE
:1006C0000895BE016F5F7F4F0E946D08009789F00B
:1006D0009093BF028093BE02D093C102C093C00228
:1006E0002091C2023091C302232B39F7FC01108202
:1006F000E4CF80E0E3CFEF92FF920F931F93CF936D
:10070000DF9300D0CDB7DEB7EE24E39481E292E030
:100710000E94E600181619065CF581E292E00E943C
:10072000C400F82E89831A820091C2021091C3027C
:100730000F5F1F4FC8010E944D03882399F020913D
:10074000BE023091BF028091C2029091C302BE01ED
:100750006F5F7F4F820F931F0E9433091093C30274
:100760000093C2028DE0F812D1CFE0922002CECFEA
:100770000F900F90DF91CF911F910F91FF90EF900D
:1007800008950E94F20081110C947B0308951F923A
:100790000F920FB60F9211242F933F934F935F93B5
:1007A0006F937F938F939F93AF93BF93EF93FF9339
:1007B00081E292E00E94FC00FF91EF91BF91AF9126
:1007C0009F918F917F916F915F914F913F912F9169
:1007D0000F900FBE0F901F9018951F920F920FB69B
:1007E0000F9211242F938F939F93EF93FF93E09198
:1007F0003102F09132028081E0913702F0913802AB
:1008000082FD1BC0908180913A028F5F8F7320918F
:100810003B02821741F0E0913A02F0E0EF5DFD4FBC
:10082000958F80933A02FF91EF919F918F912F9135
:100830000F900FBE0F901F9018958081F4CF1F92DC
:100840000F920FB60F9211242F933F938F939F9384
:10085000AF93BF938091110290911202A091130265
:10086000B09114023091100223E0230F2D3758F578
:100870000196A11DB11D2093100280931102909347
:100880001202A0931302B09314028091150290916A
:100890001602A0911702B09118020196A11DB11D78
:1008A0008093150290931602A0931702B09318023A
:1008B000BF91AF919F918F913F912F910F900FBE5C
:1008C0000F901F90189526E8230F0296A11DB11DC9
:1008D000D2CF109224021092230288EE93E0A0E07F
:1008E000B0E08093250290932602A0932702B09354
:1008F00028028AE091E0909322028093210285EC05
:1009000090E090932E0280932D0284EC90E09093DF
:10091000300280932F0280EC90E09093320280931B
:10092000310281EC90E0909334028093330282ECA8
:1009300090E0909336028093350286EC90E090939D
:1009400038028093370210923A0210923B021092C2
:100950003C0210923D021092BF021092BE02109211
:10096000C1021092C0021092C3021092C20290E023
:1009700080E00E944D032091BE023091BF028111A0
:1009800013C02115310519F0C9010E94E407109226
:10099000BF021092BE021092C3021092C2021092C5
:1009A000C1021092C00208951092C3021092C202B6
:1009B0006AE171E0C9010C943309CF93DF93CDB79D
:1009C000DEB728970FB6F894DEBF0FBECDBF789480
:1009D00084B5826084BD84B5816084BD85B5826044
:1009E00085BD85B5816085BD80916E0081608093F5
:1009F0006E0010928100809181008260809381005E
:100A0000809181008160809381008091800081606D
:100A1000809380008091B10084608093B1008091C8
:100A2000B00081608093B00080917A0084608093F0
:100A30007A0080917A00826080937A0080917A00B7
:100A4000816080937A0080917A00806880937A0038
:100A50001092C100E0913102F091320282E0808375
:100A6000E0912D02F0912E021082E0912F02F09180
:100A700030028FEC808310923902E0913502F091C0
:100A8000360286E08083E0913302F0913402808167
:100A900080618083E0913302F0913402808188602C
:100AA0008083E0913302F0913402808180688083FA
:100AB000E0913302F091340280818F7D80838AE05F
:100AC00090E00E944D0361E08BE00E94D70160E05E
:100AD0008CE00E94D70161E08DE00E94D70161E0C7
:100AE0008AE00E94D70161E089E00E94D70161E0BD
:100AF0008AE00E948B0161E089E00E948B0180E521
:100B00008CBD8DB58EB50E947B0380912002882319
:100B100009F4A1C08BE191E00E94E8024091C20279
:100B20005091C3026091BE027091BF0281E292E0D7
:100B30000E94880088E191E00E94E8026EE271E084
:100B40008091BE029091BF020E94B50610E000970E
:100B5000A1F0E12FF0E0EE0FFF1F21E030E02C0FBD
:100B60003D1FE20FF31F918380831F5F6EE271E0F0
:100B700090E080E00E94B506EACFE981FA81008129
:100B800000931F02EB81FC81108110931E028D8166
:100B90009E810E9497067C0190931D0280931C0207
:100BA0008F8198850E94970690931B0280931A026A
:100BB000003331F0013309F478C085EF91E007C0CC
:100BC000103341F0113309F44EC08CE891E00E94DB
:100BD000390323C080E391E00E94E80280911C0267
:100BE00090911D020E94470389E591E00E94E8026E
:100BF00080911A0290911B020E94470383EA91E0C0
:100C00000E94390340911A0250911B0260911C020C
:100C100070911D028AE00E946F0290E080E00E94C5
:100C20004D032091BE023091BF0281116DC021158C
:100C3000310519F0C9010E94E4071092BF02109219
:100C4000BE021092C3021092C2021092C102109210
:100C5000C002109220020E94F200882309F453CFB0
:100C60000E947B0350CF83E691E00E94E8028091CE
:100C70001C0290911D020E94470389E591E00E94A9
:100C8000E80280911A0290911B020E94470383EAB6
:100C900091E00E94390340911A0250911B02609129
:100CA0001C0270911D0289E0B6CF103369F0113338
:100CB00009F08BCF69E070E0C7010E94BC0280930D
:100CC00019028DEC91E009C06AE070E0C7010E9452
:100CD000BC028093190285EA91E00E94E8028091AB
:100CE0001C0290911D020E94470389E591E00E9439
:100CF000E8026091190270E090E080E04AE00E9412
:100D0000F50283EA91E063CF1092C3021092C2020F
:100D10006AE171E0C9010E9433099BCF8091BE0254
:100D20009091BF02009711F00C94E4070895FC0124
:100D300088279927E89421912032E9F3293010F08F
:100D40002E30C8F32B3241F02D3239F4689404C0B0
:100D50000E94E106820F911D219120532A30C0F399
:100D60001EF4909581959F4F089544EC52E00E94A7
:100D7000BA060895FA01A191B081009719F410976D
:100D8000E1F0CD01DC01CD010D90002011F4C00196
:100D900013C0FB012191222319F02015D9F7F3CFBD
:100DA000FB012191201519F41E92119606C02223F1
:100DB000C1F70D900020A1F7D001FA01A193B083F3
:100DC00008957AE0979F902D879F802D910D112493
:100DD00008952F923F924F925F926F927F928F92DF
:100DE0009F92AF92BF92CF92DF92EF92FF920F93BA
:100DF0001F93CF93DF93CDB7DEB7CA1BDB0B0FB6C4
:100E0000F894DEBF0FBECDBF09942A883988488880
:100E10005F846E847D848C849B84AA84B984C88416
:100E2000DF80EE80FD800C811B81AA81B981CE0F0D
:100E3000D11D0FB6F894DEBF0FBECDBFED010895F2
:100E4000A1E21A2EAA1BBB1BFD010DC0AA1FBB1FCE
:100E5000EE1FFF1FA217B307E407F50720F0A21B40
:100E6000B30BE40BF50B661F771F881F991F1A94AD
:100E700069F760957095809590959B01AC01BD01D7
:100E8000CF010895EE0FFF1F0590F491E02D099416
:100E90000F931F93CF93DF938230910510F482E07C
:100EA00090E0E091C802F091C90230E020E0B0E0AB
:100EB000A0E0309799F42115310509F44AC0281BA8
:100EC000390B24303105D8F58A819B816115710574
:100ED00089F1FB0193838283FE0111C0408151811E
:100EE0000281138148175907E0F04817590799F410
:100EF000109761F012960C93129713961C933296EA
:100F0000CF01DF91CF911F910F9108950093C802F7
:100F10001093C902F4CF2115310551F04217530740
:100F200038F0A901DB019A01BD01DF01F801C1CF51
:100F3000EF01F9CF9093C9028093C802CDCFFE0193
:100F4000E20FF31F81939193225031093983288353
:100F5000D7CF2091C6023091C702232B41F42091B4
:100F60000201309103013093C7022093C602209101
:100F70000001309101012115310541F42DB73EB733
:100F80004091040150910501241B350BE091C602EC
:100F9000F091C702E217F307A0F42E1B3F0B2817AE
:100FA000390778F0AC014E5F5F4F2417350748F0E2
:100FB0004E0F5F1F5093C7024093C60281939193D7
:100FC0009FCFF0E0E0E09CCFCF93DF930097E9F074
:100FD000FC01329713821282A091C802B091C9021B
:100FE000ED0130E020E01097A1F420813181820FE3
:100FF000931F2091C6023091C7022817390709F0C4
:1010000061C0F093C702E093C602DF91CF910895CB
:10101000EA01CE17DF07E8F54A815B819E014115A1
:101020005105B1F7E901FB83EA8349915991C40F56
:10103000D51FEC17FD0761F4808191810296840F22
:10104000951FE90199838883828193819B838A8399
:10105000F0E0E0E012968D919C9113970097B9F51E
:101060002D913C911197CD010296820F931F2091F3
:10107000C6023091C7022817390739F6309751F563
:101080001092C9021092C802B093C702A093C60280
:10109000BCCFD383C28340815181840F951FC81771
:1010A000D90761F44E5F5F4F88819981480F591FBE
:1010B000518340838A819B819383828321153105EB
:1010C00009F0B0CFF093C902E093C8029ECFFD01B2
:1010D000DC01C0CF13821282D7CFB0E0A0E0E3E7FB
:1010E000F8E00C94EB068C01009751F4CB010E94C0
:1010F00048078C01C801CDB7DEB7E0E10C940707C3
:10110000FC01E60FF71F9C0122503109E217F3079B
:1011100008F49DC0D901CD91DC911197C617D7076E
:1011200098F0C530D10530F3CE01049786179707A4
:1011300008F3C61BD70B2297C193D1936D937C9371
:10114000CF010E94E407D6CF5B01AC1ABD0A4C0167
:101150008C0E9D1EA091C802B091C902512C412C49
:10116000F12CE12C109731F58091C6029091C702C5
:101170008815990509F05CC04616570608F058C056
:101180008091000190910101009741F48DB79EB7C5
:101190004091040150910501841B950BE817F90754
:1011A00008F055C0F093C702E093C602F9017183BD
:1011B0006083A0CF8D919C91119712966C9012979D
:1011C00013967C901397A815B90559F56C0142E068
:1011D000C40ED11CCA14DB0420F1AC014A195B090E
:1011E000DA011296159780F06282738251834083F0
:1011F000D9016D937C93E114F10471F0D70113963A
:10120000FC93EE93129776CF22968C0F9D1FF901D7
:1012100091838083F301EFCFF093C902E093C8027A
:1012200069CF4816590608F42C017D01D3019ACFE5
:10123000CB010E9448077C01009749F0AE01B8013C
:101240000E942A09C8010E94E407870153CF10E0D9
:1012500000E050CFFB01DC0102C001900D92415033
:101260005040D8F70895FB01DC0101900D92002059
:10127000E1F7089510E0CDE5D0E004C0FE010E9442
:0E12800042072196CE35D107C9F7F894FFCF6B
:10128E000000CA028000000000001E018800B500A8
:10129E006B01E600C400D8000D0A00526563656953
:1012AE0076656420636F6D6D616E643A20002A006E
:1012BE004F7065726174696F6E3A2057726974650A
:1012CE003B20536C6176652049443A20303B2041E7
:1012DE006464726573733A20002C2056616C7565D8
:1012EE003A20004F7065726174696F6E3A205772C2
:1012FE006974653B20536C6176652049443A203110
:10130E003B20416464726573733A20004572726FBC
:10131E00723A20496E76616C696420536C61766511
:10132E002049442E004F7065726174696F6E3A20C9
:10133E00526561643B20536C6176652049443A20C6
:10134E00303B20416464726573733A20004F7065C0
:10135E00726174696F6E3A20526561643B20536C02
:10136E006176652049443A20313B204164647265C0
:10137E0073733A20004572726F723A20496E76612D
:10138E006C6964204F7065726174696F6E2E000017
:107E0000112484B714BE81FFF0D085E080938100F7
:107E100082E08093C00088E18093C10086E0809377
:107E2000C20080E18093C4008EE0C9D0259A86E02C
:107E300020E33CEF91E0309385002093840096BBD3
:107E4000B09BFECF1D9AA8958150A9F7CC24DD24C4
:107E500088248394B5E0AB2EA1E19A2EF3E0BF2EE7
:107E6000A2D0813461F49FD0082FAFD0023811F036
:107E7000013811F484E001C083E08DD089C08234E0
:107E800011F484E103C0853419F485E0A6D080C0E4
:107E9000853579F488D0E82EFF2485D0082F10E0AE
:107EA000102F00270E291F29000F111F8ED06801E7
:107EB0006FC0863521F484E090D080E0DECF843638
:107EC00009F040C070D06FD0082F6DD080E0C81688
:107ED00080E7D80618F4F601B7BEE895C0E0D1E017
:107EE00062D089930C17E1F7F0E0CF16F0E7DF06D8
:107EF00018F0F601B7BEE89568D007B600FCFDCFD4
:107F0000A601A0E0B1E02C9130E011968C91119780
:107F100090E0982F8827822B932B1296FA010C0160
:107F200087BEE89511244E5F5F4FF1E0A038BF0790
:107F300051F7F601A7BEE89507B600FCFDCF97BE46
:107F4000E89526C08437B1F42ED02DD0F82E2BD052
:107F50003CD0F601EF2C8F010F5F1F4F84911BD097
:107F6000EA94F801C1F70894C11CD11CFA94CF0C13
:107F7000D11C0EC0853739F428D08EE10CD085E9AC
:107F80000AD08FE07ACF813511F488E018D01DD067
:107F900080E101D065CF982F8091C00085FFFCCF94
:107FA0009093C60008958091C00087FFFCCF809118
:107FB000C00084FD01C0A8958091C6000895E0E648
:107FC000F0E098E1908380830895EDDF803219F02E
:107FD00088E0F5DFFFCF84E1DECF1F93182FE3DFCA
:107FE0001150E9F7F2DF1F91089580E0E8DFEE27F6
:047FF000FF270994CA
:027FFE00040479
:0400000300007E007B
:00000001FF
