:1000000072C00000A0C000009EC000009CC00000A4
:100010009AC0000098C0000096C0000094C0000084
:1000200092C0000090C000008EC000008CC0000094
:100030008AC0000088C0000086C0000084C00000A4
:1000400082C0000080C000007EC000007CC00000B4
:100050007AC0000078C0000076C00000FAC300003B
:1000600072C00000C0C3000095C300006CC0000057
:100070006AC0000068C0000066C0000064C00000E4
:1000800062C0000060C000005EC000005CC00000F4
:100090004BC3000020C3000056C0000054C0000045
:1000A00052C0000050C000004EC000004CC0000014
:1000B0004AC0000048C0000046C0000044C0000024
:1000C00042C0000040C000003EC000003CC0000034
:1000D0003AC0000038C0000036C0000034C0000044
:1000E00032C00000730411241FBECFEFD1E2DEBF87
:1000F000CDBF00E00CBF12E0A0E0B2E0E2ECF7E11F
:1001000000E00BBF02C007900D92AA33B107D9F7E8
:1001100023E0AAE3B2E001C01D92A03FB207E1F7DD
:1001200010E0C3E7D0E000E006C021970109802F6E
:10013000FE010E94B80BC237D10780E00807A9F77B
:1001400083D40C94DF0B5CCFFC01A089B18982E0E1
:100150008C93A485B5851C92A685B7858FEC8C936E
:10016000108EA489B58986E08C93A289B3898C917D
:1001700080618C93A289B3898C9188608C93A289C9
:10018000B3898C9180688C930288F389E02D8081FB
:100190008F7D808308950F931F93CF93DF93C0913A
:1001A000D303E4EDF3E0CD3211F0E3EDF3E08F01A2
:1001B00020E030E0A901D801DD918D0180ED8D0FA7
:1001C0008A3090F4AAE0B0E00E94C00B2D2FDD0F22
:1001D000330B440B550B260F371F481F591F205355
:1001E000310941095109E7CFA4E6B0E00E94C00BF4
:1001F000AB01BC01DF01819190ED980F9A30D0F3F3
:100200008E3259F511968C91119790ED980F9A3086
:1002100020F5082E000C990BC0972AE0289F80013A
:10022000299F100D1124012E000C220B330B400FBF
:10023000511F621F731F12968C9190ED980F9A3088
:1002400060F4082E000C990BC097092E000CAA0B25
:10025000BB0B480F591F6A1F7B1FCD3239F47095B5
:100260006095509541955F4F6F4F7F4FCB01BA011D
:10027000DF91CF911F910F9108954F925F926F92EE
:100280007F928F929F92AF92BF92CF92DF92EF9226
:10029000FF921F93CF93DF93C3EDD3E0FE01C12CF8
:1002A000D12C7601119180ED810F8A30A8F4AAE05B
:1002B000B0E0A70196010E94C00BC12E110FDD080E
:1002C000EE08FF08C60ED71EE81EF91E80E3C81A06
:1002D000D108E108F108E6CFC701B60124E630E015
:1002E00040E050E00E94960B9B01AC0160EA76E88A
:1002F00081E090E00E94870B4B015C019E01899197
:1003000090ED980F9A30D0F38E3221F5E9012196C5
:1003100080E1482E87E2582E612C712CA99180ED46
:100320008A0F8A30B8F40A2E000CBB0BD097A301B9
:1003300092010E94CA0B860E971EA81EB91EC30109
:10034000B2012AE030E040E050E00E94960B290123
:100350003A01E4CFC701B60124E630E040E050E0C6
:100360000E94960B60E472E48FE090E00E94870B9D
:100370006B017C01C501B4016D5F7F4F8F4F9F4FB3
:1003800026E030E040E050E00E94960BC701B60145
:10039000620F731F841F951FDF91CF911F91FF90F4
:1003A000EF90DF90CF90BF90AF909F908F907F9015
:1003B0006F905F904F900895AF92BF92CF92DF926F
:1003C000EF92FF920F931F93CF93DF936C017B010A
:1003D0008B01040F151FEB015E01AE18BF08C0179B
:1003E000D10759F06991D601ED91FC910190F0810E
:1003F000E02DC6011995892B79F7C501DF91CF91C1
:100400001F910F91FF90EF90DF90CF90BF90AF9032
:100410000895FC01538D448D252F30E0842F90E00A
:10042000821B930B541710F0CF96089501970895EF
:10043000FC01918D828D981761F0A28DAE0FBF2FB8
:10044000B11D5D968C91928D9F5F9F73928F90E00E
:1004500008958FEF9FEF0895FC01918D828D98177D
:1004600031F0828DE80FF11D858D90E008958FEFBA
:100470009FEF0895FC01918D228D892F90E0805C83
:100480009F4F821B91098F739927089583E492E00F
:10049000F1DF21E0892B09F420E0822F089580EE1E
:1004A00092E0E8DF21E0892B09F420E0822F089513
:1004B000FC01A48DA80FB92FB11DA35ABF4F2C91D9
:1004C000848D90E001968F739927848FA689B789D0
:1004D0002C93A089B1898C91837080648C93938DC7
:1004E000848D981306C00288F389E02D80818F7D6A
:1004F00080830895EF92FF920F931F93CF93DF9322
:10050000EC0181E0888F9B8D8C8D98131AC0E8894F
:10051000F989808185FF15C09FB7F894EE89FF891E
:100520006083E889F98980818370806480839FBFBC
:1005300081E090E0DF91CF911F910F91FF90EF90BC
:100540000895F62E0B8D10E00F5F1F4F0F731127CC
:10055000E02E8C8D8E110BC00FB607FCFACFE88908
:10056000F989808185FFF5CFCE01A2DFF2CFEB8D37
:10057000EC0FFD2FF11DE35AFF4FF0829FB7F89467
:100580000B8FEA89FB8980818062D0CFCF93DF9384
:10059000EC01888D8823B1F0AA89BB89E889F989A3
:1005A0008C9185FD03C0808186FD0CC00FB607FCD1
:1005B000F7CF8C9185FFF2CF808185FFEDCFCE0103
:1005C00077DFEACFDF91CF91089580E090E0892B2B
:1005D00021F065DF81110E94000080E090E0892B0E
:1005E00021F054DF81110E94000080E090E0892B0F
:1005F00049F080E090E0892B29F00E9400008111F1
:100600000E94000080E090E0892B49F080E090E0BB
:10061000892B29F00E94000081110C94000008959C
:100620002FB7F89460913F0270914002809141028F
:10063000909142022FBF0895FC0101900020E9F73C
:100640003197AF01481B590BBC0183E492E0B4CE53
:100650008F929F92AF92BF920F931F93CF93DF938E
:10066000CDB7DEB7A1970FB6F894DEBF0FBECDBFF2
:1006700019A2423008F44AE08E010F5D1F4F842E0C
:10068000912CB12CA12CA50194010E94960BE62F70
:10069000B901CA01EA30ECF4E05DD801EE938D01B6
:1006A000232B242B252B79F790E080E0109711F075
:1006B000CD01C2DFA1960FB6F894DEBF0FBECDBF4D
:1006C000DF91CF911F910F91BF90AF909F908F902E
:1006D0000895E95CE2CF1F920F920FB60F9211249A
:1006E0000BB60F922F933F934F935F936F937F932C
:1006F0008F939F93AF93BF93EF93FF9383E492E025
:10070000D7DEFF91EF91BF91AF919F918F917F9134
:100710006F915F914F913F912F910F900BBE0F9072
:100720000FBE0F901F9018951F920F920FB60F9249
:1007300011240BB60F922F938F939F93EF93FF93F8
:10074000E0915302F09154028081E0915902F091BE
:100750005A0282FD1DC0908180915C028F5F8F7371
:1007600020915D02821741F0E0915C02F0E0ED5BC8
:10077000FD4F958F80935C02FF91EF919F918F9138
:100780002F910F900BBE0F900FBE0F901F901895DA
:100790008081F2CF1F920F920FB60F9211240BB6E9
:1007A0000F922F933F934F935F936F937F938F930A
:1007B0009F93AF93BF93EF93FF9380EE92E078DE29
:1007C000FF91EF91BF91AF919F918F917F916F9129
:1007D0005F914F913F912F910F900BBE0F900FBEE5
:1007E0000F901F9018951F920F920FB60F92112421
:1007F0000BB60F922F938F939F93EF93FF93E091FC
:10080000F002F091F1028081E091F602F091F7029E
:1008100082FD1DC090818091F9028F5F8F732091BE
:10082000FA02821741F0E091F902F0E0E052FD4F48
:10083000958F8093F902FF91EF919F918F912F9166
:100840000F900BBE0F900FBE0F901F9018958081D8
:10085000F2CF1F920F920FB60F9211242F933F9356
:100860008F939F93AF93BF9380913F0290914002EB
:10087000A0914102B091420230913E0223E0230F49
:100880002D3758F50196A11DB11D20933E0280938E
:100890003F0290934002A0934102B09342028091A4
:1008A0003A0290913B02A0913C02B0913D02019628
:1008B000A11DB11D80933A0290933B02A0933C028C
:1008C000B0933D02BF91AF919F918F913F912F9136
:1008D0000F900FBE0F901F90189526E8230F0296D9
:1008E000A11DB11DD2CFE3E4F2E01382128248EEE3
:1008F00053E060E070E0448355836683778384E04F
:1009000092E0918380832DEC30E0358724872CECB6
:1009100030E03787268728EC30E0318B208B29ECBC
:1009200030E0338B228B2AEC30E0358B248B2EEC9D
:1009300030E0378B268B118E128E138E148EE0EEE4
:10094000F2E0138212824483558366837783918316
:10095000808385EC90E09587848784EC90E097878E
:10096000868780EC90E0918B808B81EC90E0938B7C
:10097000828B82EC90E0958B848B86EC90E0978B59
:10098000868B118E128E138E148EEDE7F3E04FEFEF
:100990005FEFBA01408351836283738310861186AF
:1009A000128613868FEF99ECAAE9BBE3808B918BBB
:1009B000A28BB38B808F918FA28FB38F80A391A3D3
:1009C000A2A3B3A380A791A7A2A7B3A780AB91AB23
:1009D000A2ABB3AB40AF51AF62AF73AF8FEF90E05C
:1009E0009093BE038093BD034093C1035093C20311
:1009F0006093C3037093C4034093C9035093CA0325
:100A00006093CB037093CC031092D1031092D20366
:100A100082E08093E2031092E3031092E4031092C9
:100A2000E5031092E6031092E7031092E803109298
:100A3000E9031092EB031092EA031092ED03109277
:100A4000EC031092D3030895789484B5826084BD3A
:100A500084B5816084BD85B5826085BD85B58160C2
:100A600085BD80916E00816080936E001092810040
:100A700080918100826080938100809181008160FB
:100A800080938100809180008160809380008091BC
:100A9000B10084608093B1008091B0008160809348
:100AA000B0008091910082608093910080919100CC
:100AB000816080939100809190008160809390008C
:100AC0008091A10082608093A1008091A10081604B
:100AD0008093A1008091A00081608093A00080910C
:100AE00021018260809321018091210181608093A6
:100AF00021018091200181608093200180917A0002
:100B0000846080937A0080917A00826080937A007A
:100B100080917A00816080937A0080917A00806869
:100B200080937A001092C10080EE92E00DDB83E4A6
:100B300092E00ADB92E0792E6624639471DD6B010A
:100B40007C0100E06DDD6C197D098E099F09683E0E
:100B500073408105910508F426C1002309F445C0BE
:100B6000C0908D03D0908E03E0908F03F09090039F
:100B70008091C9039091CA03A091CB03B091CC039B
:100B80008F3F9F4FAF4FBF4F09F04ADD8FEFC81621
:100B900089ECD8068AE9E8068BE3F80609F4EEC288
:100BA000C701B60199D420E034E244E759E4FED30A
:100BB0006B017C018EE192E03FDD20E030E04AE70E
:100BC00054E4C701B601EED3882309F4DEC2A701BD
:100BD0009601C701B60197D5882309F4D9C28AE2E4
:100BE00092E02ADD86E392E027DDEFDCA7CF1A3220
:100BF00009F403C11C3209F0ADC28091D1038127F1
:100C00008093D103FAC08091E303F0E0ED52FC4FF2
:100C10001082B090D203BB2009F468C12091D303A5
:100C2000822F022E000C990B3FEB320F363008F06A
:100C3000E9C0C7978295807F9091D403292F092E10
:100C4000000C330B4FEB490F463008F0E3C027533D
:100C50003109820F9091D10389133EC1B090E50311
:100C6000BB2009F4CDC08091EA039091EB0301967B
:100C70009093EB038093EA038091C5039091C603A0
:100C8000A091C703B091C8038093C1039093C2039E
:100C9000A093C303B093C4038091CD039091CE037E
:100CA000A091CF03B091D0038093C9039093CA035E
:100CB000A093CB03B093CC038091E203882309F483
:100CC000B2C0813009F060C08091810390918203AD
:100CD000A0918303B091840380937D0390937E035E
:100CE000A0937F03B09380038091890390918A033E
:100CF000A0918B03B0918C0380938503909386031E
:100D0000A0938703B09388038091910390919203FD
:100D1000A0919303B091940380938D0390938E03DD
:100D2000A0938F03B09390038091990390919A03BD
:100D3000A0919B03B0919C0380939503909396039D
:100D4000A0939703B09398038091A9039091AA036D
:100D5000A091AB03B091AC038093A5039093A6033D
:100D6000A093A703B093A8038091B1039091B2031D
:100D7000A091B303B091B4038093AD039093AE03FD
:100D8000A093AF03B093B0038091E3038F5F809390
:100D9000E3031092E40381E01A3209F080E08093CB
:100DA000D203B1100B2D80EE92E064DB892B09F4A5
:100DB000C9CE80EE92E03CDB182F8091E603909143
:100DC000E703A091E803B091E9030196A11DB11DCD
:100DD0008093E6039093E703A093E803B093E903BD
:100DE000143209F4AAC1E091E40315320CF0FFCEED
:100DF0001A3019F01D3009F0ADC1EF3008F403CFFF
:100E0000B12CC2CF2156263018F48755910912CF44
:100E1000C09710CF9156963018F42755310919CF45
:100E20002053310916CF8091A1039091A203A09184
:100E3000A303B091A40380939D0390939E03A0937A
:100E40009F03B093A0038091810390918203A091AE
:100E50008303B091840380937D0390937E03A093DA
:100E60007F03B09380038091910390919203A091AE
:100E70009303B091940380938D0390938E03A0937A
:100E80008F03B09390038091990390919A03A0915E
:100E90009B03B0919C038093950390939603A0933A
:100EA0009703B09398038091BF039091C0039093F0
:100EB000BE038093BD038091B9039091BA03A091C2
:100EC000BB03B091BC038093B5039093B603A0938A
:100ED000B703B093B80358CF8091EC039091ED0322
:100EE00001969093ED038093EC038ACF81111AC091
:100EF000A3EDB3E0E2E1F2E09D01E90189919E01F9
:100F0000882309F4BFC191918917B9F3E8E1F2E0B0
:100F10008D91882309F4B9C191918917C9F3709211
:100F2000E20332CFE091E203E23009F469CF90911D
:100F3000D303992309F464CFD0E2ED9FF00111248B
:100F4000E82B3197E932F10508F01ECF8827E555E7
:100F5000F84F8F4F0DC4F00709081C0837084108E7
:100F60007908800889089308C406C406C406C40624
:100F7000C406C406C406C406C406C406C406C40621
:100F8000C406C406C406C406C406C406C406C40611
:100F9000C406C406C406F007030809081C0837087D
:100FA00041085C086608D407E3EDF3E020E030E098
:100FB000A901A19080ED8A0D8A3008F091C0AAE0C5
:100FC000B0E0DED32A2DAA0C330B440B550B260FB1
:100FD000371F481F591F2053310941095109E9CFD3
:100FE000DAD8609381037093820380938303909394
:100FF000840316DB6093C5037093C6038093C70315
:101000009093C803C1CE81E0913409F476C080E0AA
:1010100074C033D9609391037093920380939303C8
:1010200090939403FDDA6093CD037093CE03809385
:10103000CF039093D003A8CE933509F0E1CE8091F1
:10104000910390919203A0919303B0919403B09572
:10105000A095909581959F4FAF4FBF4F809391037F
:1010600090939203A0939303B09394038DCE05D9EC
:101070006093990370939A0380939B0390939C03CE
:1010800083CE973509F0BCCE8091990390919A0355
:10109000A0919B03B0919C03B095A09590958195EC
:1010A0009F4FAF4FBF4F8093990390939A03A093A4
:1010B0009B03B0939C0368CE6ED86093A903709392
:1010C000AA038093AB039093AC035ECE64D8609385
:1010D000B1037093B2038093B3039093B40354CEDF
:1010E0002093890330938A0340938B0350938C039E
:1010F0004BCE81E091330CF48ACF8093E50344CE4C
:1011000083ED93E0C5D099279093C0038093BF03EC
:101110003BCE41D86093B9037093BA038093BB036D
:101120009093BC0331CE37D86093A1037093A20390
:101130008093A3039093A40327CE1092E40310920C
:10114000E3031092D1037092E2031092D203109243
:10115000E50329CEEE3040F481E08E0F8093E40366
:10116000F0E0ED52FC4F10838091D20381111BCE31
:101170008091D10318271093D10315CEC12CD12C07
:101180008AE7E82E84E4F82E15CDC12CD12C760107
:1011900046015701E894B7F82FEF3FEF4FE75FE7BD
:1011A000C501B401B0D281110CC02FEF3FEF4FE762
:1011B0005FE7C501B401F6D018161CF48EE292E088
:1011C00010CD2FEF3FEF4FE75FE4C701B60134D2F8
:1011D00018161CF482E392E004CD2FEF3FEF4FE7A7
:1011E0005FECC701B601DED087FDF4CF20E030E030
:1011F000A901C701B601D6D087FF08C06DE283E41C
:1012000092E078D9F7FAF094F7F8F0942CEB37E302
:1012100046E055E3C701B60161D06B017C012ED1D8
:101220004B015C0157D19B01AC01C701B60155D000
:101230006B017C014AE0C501B4010ADA6EE283E485
:1012400092E058D917E0115009F4CCCC20E030E0FE
:1012500040E251E4C701B601F3D14B015C010ED16C
:101260006B01F12CE12C4AE0C701B601F1D9C701AD
:10127000B60130D19B01AC01C501B4012ED06B0188
:101280007C01E1CF6092E2037FCD1092E2037CCD3E
:10129000FC0188279927E89421912032E9F329302D
:1012A00010F02E30C8F32B3239F02D3231F468941F
:1012B00003C00BD0820F911D219120532A30C8F317
:1012C0001EF4909581959F4F08957AE0979F902DF9
:1012D000879F802D910D112408955058BB27AA2770
:1012E0000ED070C161D130F066D120F031F49F3F53
:1012F00011F41EF456C10EF4E095E7FB4CC1E92F42
:1013000072D180F3BA17620773078407950718F044
:1013100071F49EF58AC10EF4E0950B2EBA2FA02D24
:101320000B01B90190010C01CA01A0011124FF2792
:10133000591B99F0593F50F4503E68F11A16F0408D
:10134000A22F232F342F4427585FF3CF469537958C
:101350002795A795F0405395C9F77EF41F16BA0B51
:10136000620B730B840BBAF09150A1F0FF0FBB1FFF
:10137000661F771F881FC2F70EC0BA0F621F731F48
:10138000841F48F4879577956795B795F7959E3FA5
:1013900008F0B3CF9395880F08F09927EE0F979533
:1013A00087950895D4D008F481E008950CD00AC13F
:1013B00002D140F0F9D030F021F45F3F19F0EBC0DA
:1013C000511134C1EEC00FD198F39923C9F35523BD
:1013D000B1F3951B550BBB27AA2762177307840728
:1013E00038F09F5F5F4F220F331F441FAA1FA9F3DE
:1013F00033D00E2E3AF0E0E830D091505040E695D0
:10140000001CCAF729D0FE2F27D0660F771F881F30
:10141000BB1F261737074807AB07B0E809F0BB0B1F
:10142000802DBF01FF2793585F4F2AF09E3F510543
:1014300068F0B1C0FBC05F3FECF3983EDCF38695EB
:1014400077956795B795F7959F5FC9F7880F911DB9
:101450009695879597F90895E1E0660F771F881FA5
:10146000BB1F621773078407BA0720F0621B730B58
:10147000840BBA0BEE1F88F7E0950895BCD088F076
:101480009F5790F0B92F9927B751A0F0D1F0660F70
:10149000771F881F991F1AF0BA95C9F712C0B1308B
:1014A00081F0C3D0B1E00895C0C0672F782F88279E
:1014B000B85F39F0B93FCCF3869577956795B395CA
:1014C000D9F73EF490958095709561957F4F8F4F39
:1014D0009F4F0895E89409C097FB3EF4909580953E
:1014E000709561957F4F8F4F9F4F9923A9F0F92FEA
:1014F00096E9BB279395F695879577956795B79568
:10150000F111F8CFFAF4BB0F11F460FF1BC06F5F4D
:101510007F4F8F4F9F4F16C0882311F096E911C05F
:10152000772321F09EE8872F762F05C0662371F080
:1015300096E8862F70E060E02AF09A95660F771F94
:10154000881FDAF7880F9695879597F90895990F70
:101550000008550FAA0BE0E8FEEF16161706E8077D
:10156000F907C0F012161306E407F50798F0621B9E
:10157000730B840B950B39F40A2661F0232B242B73
:10158000252B21F408950A2609F4A140A6958FEF92
:10159000811D811D089597F99F6780E870E060E0E4
:1015A00008959FEF80EC089500240A9416161706FC
:1015B00018060906089500240A9412161306140644
:1015C00005060895092E0394000C11F4882352F0A7
:1015D000BB0F40F4BF2B11F460FF04C06F5F7F4F5F
:1015E0008F4F9F4F089557FD9058440F551F59F046
:1015F0005F3F71F04795880F97FB991F61F09F3F00
:1016000079F087950895121613061406551FF2CF28
:101610004695F1DF08C0161617061806991FF1CF78
:1016200086957105610508940895E894BB2766279F
:101630007727CB0197F908958ADF08F48FEF089593
:101640000BD0C0CFB1DF28F0B6DF18F0952309F03A
:10165000A2CFA7CF1124EACFC6DFA0F3959FD1F385
:10166000950F50E0551F629FF001729FBB27F00D50
:10167000B11D639FAA27F00DB11DAA1F649F6627A5
:10168000B00DA11D661F829F2227B00DA11D621FF4
:10169000739FB00DA11D621F839FA00D611D221FAE
:1016A000749F3327A00D611D231F849F600D211D92
:1016B000822F762F6A2F11249F5750408AF0E1F035
:1016C00088234AF0EE0FFF1FBB1F661F771F881F7E
:1016D00091505040A9F79E3F510570F05CCFA6CFC6
:1016E0005F3FECF3983EDCF3869577956795B79569
:1016F000F795E7959F5FC1F7FE2B880F911D969593
:10170000879597F9089523DF880B990B0895DB01DE
:101710008F939F9335D0BF91AF91A29F800D911D64
:10172000A39F900DB29F900D11240895A1E21A2E4F
:10173000AA1BBB1BFD010DC0AA1FBB1FEE1FFF1F75
:10174000A217B307E407F50720F0A21BB30BE40BC5
:10175000F50B661F771F881F991F1A9469F760950C
:101760007095809590959B01AC01BD01CF010895C6
:10177000EE0FFF1F881F8BBF0790F691E02D199485
:101780000FD0A59F900DB49F900DA49F800D911D2B
:1017900011240895B7FFF4CFF3DF821B930B089554
:1017A000A29FB001B39FC001A39F700D811D1124A2
:1017B000911DB29F700D811D1124911D0895F89403
:0217C000FFCF59
:1017C200000000007A02DC010902C6023A02180295
:1017D2002C024750524D43004750474741004C614D
:1017E200746974756465203D20006E616E00696ED7
:0A17F20066006F7666000D0A000025
:00000001FF
